{"abi":[{"type":"function","name":"addReading","inputs":[{"name":"_co_ugm3","type":"uint256","internalType":"uint256"}],"outputs":[],"stateMutability":"nonpayable"},{"type":"function","name":"getReading","inputs":[{"name":"index","type":"uint256","internalType":"uint256"}],"outputs":[{"name":"","type":"uint256","internalType":"uint256"},{"name":"","type":"uint256","internalType":"uint256"}],"stateMutability":"view"},{"type":"function","name":"getReadingCount","inputs":[],"outputs":[{"name":"","type":"uint256","internalType":"uint256"}],"stateMutability":"view"},{"type":"function","name":"readings","inputs":[{"name":"","type":"uint256","internalType":"uint256"}],"outputs":[{"name":"timestamp","type":"uint256","internalType":"uint256"},{"name":"co_ugm3","type":"uint256","internalType":"uint256"}],"stateMutability":"view"},{"type":"event","name":"NewReading","inputs":[{"name":"timestamp","type":"uint256","indexed":false,"internalType":"uint256"},{"name":"co_ugm3","type":"uint256","indexed":false,"internalType":"uint256"}],"anonymous":false}],"bytecode":{"object":"0x6080604052348015600e575f5ffd5b506103d58061001c5f395ff3fe608060405234801561000f575f5ffd5b5060043610610049575f3560e01c806287a7881461004d578063d5da886d1461007e578063d6dd2f3d146100af578063f05c7aed146100cd575b5f5ffd5b61006760048036038101906100629190610280565b6100e9565b6040516100759291906102ba565b60405180910390f35b61009860048036038101906100939190610280565b610184565b6040516100a69291906102ba565b60405180910390f35b6100b76101b2565b6040516100c491906102e1565b60405180910390f35b6100e760048036038101906100e29190610280565b6101bd565b005b5f5f5f805490508310610131576040517f08c379a000000000000000000000000000000000000000000000000000000000815260040161012890610354565b60405180910390fd5b5f5f848154811061014557610144610372565b5b905f5260205f2090600202016040518060400160405290815f82015481526020016001820154815250509050805f015181602001519250925050915091565b5f8181548110610192575f80fd5b905f5260205f2090600202015f91509050805f0154908060010154905082565b5f5f80549050905090565b5f604051806040016040528042815260200183815250908060018154018082558091505060019003905f5260205f2090600202015f909190919091505f820151815f01556020820151816001015550507fccf1713cca5114a8b5ea0d5389a17a8aab99d592d0b7a301b588167418825fe6428260405161023e9291906102ba565b60405180910390a150565b5f5ffd5b5f819050919050565b61025f8161024d565b8114610269575f5ffd5b50565b5f8135905061027a81610256565b92915050565b5f6020828403121561029557610294610249565b5b5f6102a28482850161026c565b91505092915050565b6102b48161024d565b82525050565b5f6040820190506102cd5f8301856102ab565b6102da60208301846102ab565b9392505050565b5f6020820190506102f45f8301846102ab565b92915050565b5f82825260208201905092915050565b7f496e646963652066756572612064652072616e676f00000000000000000000005f82015250565b5f61033e6015836102fa565b91506103498261030a565b602082019050919050565b5f6020820190508181035f83015261036b81610332565b9050919050565b7f4e487b71000000000000000000000000000000000000000000000000000000005f52603260045260245ffdfea2646970667358221220bccc0c6a3e00f4ebe075ac4f04e26024c3edd9fe6cb924698e89ec27cdcadc4664736f6c634300081e0033","linkReferences":{}},"methodIdentifiers":{"addReading(uint256)":"f05c7aed","getReading(uint256)":"0087a788","getReadingCount()":"d6dd2f3d","readings(uint256)":"d5da886d"},"id":0}